:02000004C0D06A
:10000000F0B503AF8DB062B603F08CFE2D4E3348D1
:100010007844009032E004F0F5F801F0D7FD204676
:10002000214606F003FD6022274D2846214603F0B5
:100030002BFF2648A864E864254828655420C82179
:100040002952284605F048FC224804F0CFFF34210D
:10005000415C012006F0EAFC1F480460204600993C
:10006000224604F0E9FC00F0CFF80B98306001A9BB
:10007000898D002902D020E00B9830600024B02246
:100080000F48214603F000FF30680B90354601AE63
:10009000304606F083FEB0852E602E4680B21028D2
:1000A000EAD00028B7D001A8002484850B983060DE
:1000B00003F014FE20460DB0F0BD06F07BFEC046F6
:1000C0002C1C0020881F0020601E0020D81F00204C
:1000D000C01E0020407ED0C0301D002044710000B2
:1000E000F0B503AF8DB03E483E4900260E522120A8
:1000F00000010E543C4C20680B9001AD284606F0E0
:100100004DFEA885256081B2002913D0354D1029F8
:100110005FD001A900228A850B99216034496F22A2
:100120000A702F4A0223AB5248700121284601F081
:1001300099FF46E02B480446208801F09AFF217879
:100140002A480029254630D1294948780A782A4D7D
:100150007D442A4979443346AC5DA24202D18C5D8C
:10016000A0420AD05B1C761C0E2EF5D36D20000237
:10017000D9B20E291B4D01D117E01A4D2048784401
:10018000805D00280AD08320810067200002184A81
:100190001279002A09D0695A052906D0B0001949F8
:1001A0007944085804F022FF8047124968520C49EC
:1001B0006A5A030A0E4CA354A3185870901C685234
:1001C000094C0B98206001A9898D002906D10DB03A
:1001D000F0BD0B982060102106F0ECFD06F0EAFD62
:1001E0000E02000074180020881F0020AA6F000073
:1001F000D81F002012020000496D0000536D00005E
:10020000376D0000246D0000F0B503AF81B00D48DC
:100210000024FF22214603F037FE0B480B4D2C52E1
:1002200021200601AC552046C0B2A1B204F00CFA60
:10023000832189006852FFF753FF03482C5AA85DB9
:10024000F2E7C046D81F00200E02000074180020FC
:10025000F0B503AF81B0214C204604F0C7FE808882
:1002600001F007FF204604F0C1FE00791C4CFF2876
:1002700030D01A4804F0BAFE007900282AD0194C70
:10028000208C010A184D29706870608C010AA970D1
:10029000E8702420205C28713726A25D6A71A81DB1
:1002A0002146253103F0FAFD38200090225CA05D44
:1002B000811DC9B26A54C61DF0B2281821463231D8
:1002C00003F0ECFD0098205C8019C0B20749605231
:1002D00009200403204601B0F0BDC046407ED0C0D6
:1002E0008569000074180020D81F00200E0200004D
:1002F00080B500AF0D4804F079FE807901210840F7
:100300001B2242400A480270302242708170C17044
:10031000122202714171002181710321C1710548CE
:10032000054908220A520920000380BD407ED0C042
:10033000D81F00200E02000074180020B0B502AFD4
:10034000134C204604F052FE808801F092FE2046B5
:1003500004F04CFE00790F4CFF2816D00C4804F036
:1003600045FE0079002810D06B2004020A4DA878C1
:1003700000280AD1064804F039FE007928700748A1
:10038000074901220A52092004032046B0BDC04695
:10039000407ED0C085690000D81F00200E020000FA
:1003A00074180020D0B502AF0720C043094909796D
:1003B000002900D00846C4B267200002F82C08D8F3
:1003C0000448214604F082FE034804490C520920E7
:1003D0000003D0BDD81F00200E02000074180020BA
:1003E000F0B503AFA7B0504E3479504D284604F015
:1003F000FDFD808801F03DFE284604F0F7FD007900
:100400004B4A042800D987E001252946814016205F
:10041000014200D180E00394B1786B2004020020F7
:1004200080291AD0002978D1701D00262946029211
:10043000324601F0C4FC4121C9003E4A50501675B5
:10044000812080001654D6774520800015547F20E7
:1004500080001654029A344E0420F17800295CD1B1
:1004600002923118491D6A02324EB1500399081A9E
:10047000FF2149007054284601F0D6FE09200403EC
:10048000307D082849D10025357581208000305CF9
:10049000002845D004A902916846016030463C30EE
:1004A000012101912A462B4604F06AFE082103919E
:1004B0001D4E304604F00AFE3220307075700CADCF
:1004C000284604F03FFE301D694608602023284678
:1004D0000199029A04F054FE4120C000154D29589C
:1004E0003046243001F097FC30462830294615313B
:1004F000039A03F0D3FC0D4804F078FD3146303107
:100500006A461160223047213023324604F076FEDD
:1005100009483821295200E01446A0B227B0F0BDA6
:10052000029CFB34F9E7C046D81F0020407ED0C0B3
:1005300085690000741800200E020000F0B503AFBA
:100540009FB05D4804F052FD837901252B405B4C40
:10055000A278E078059010436B210E02012800D9A3
:10056000A6E0672006022079002800D1A0E00493CD
:100570000292611D14A8292203F090FC4E4E3046D1
:1005800004F034FD808801F074FD304604F02EFD47
:100590004B49CE1C0079042800D989E085401620FB
:1005A000054200D184E0039104F0EAFE00282FD038
:1005B00014A801210CAA01F0F3FC4126267004982E
:1005C000002804D13F48083001F08CFB2126651C2F
:1005D0003C4908314122284603F060FC0598401E42
:1005E000C0B2022816D2284606AD00210591297016
:1005F00014216970B1B2AA1C01F048FC3248408C49
:10060000694608600598486022464332162109E091
:10061000039E4DE02C48008C00216A4603C2B1B213
:10062000224643329623284601F051FC049A422187
:100630006054002A01D104216170C5B2601905908F
:1006400043300CA9202203F029FC284663301F49BF
:100650001D4B5852092006030298012828D1039AFD
:10066000FE32322D01D9164622E02046C8304334EE
:10067000214603922A461C4603F010FCC8200022A3
:10068000059904920A5421200501605D102101435F
:10069000615503F0B5FA039C002809D10A480246C7
:1006A000505DEF21014051550848049911522646EA
:1006B000B0B21FB0F0BDC046407ED0C0D81F0020F1
:1006C0008269000000180020741800200E0200004B
:1006D000B0B502AF002169238522002807D0104859
:1006E0001049085A104941180B32002001E0104609
:1006F0001A468BB20D4CE2548A1C094B094DEA5242
:10070000491C89B260540A48007891B2002803D08D
:10071000084802F0A5F9B0BD202003F095FFB0BD58
:100720000E02000074180020FEFF0000D81F0020F9
:10073000BA220020601E0020F0B503AFA3B0F54A36
:1007400095786B210C021179002D04D0FF2D02D079
:10075000802D00D0BCE00991EF4BF04A7F21890049
:100760000C91515C0024069480240029089418D030
:10077000D15C002915D1E7494E7921467D31C9B2B6
:10078000012206928E420CD322467E32D4B205223A
:100790000023A64200D01A4603238E4200D01346FF
:1007A00006930D90DE4C206819900FAE304606F08F
:1007B000F5FA2246B08516602836DA49084207D095
:1007C0000FA800218185199810606F20050258E05C
:1007D000D248007DD44B092852D10920040308993E
:1007E0007F31C8B2854276D1CC49487F002844D0B9
:1007F0000E94D148085C00281D460E4642D00021C8
:1008000098220D9D284603F03FFBC24948790028F5
:100810002FD02E466D36491D2922304603F03EFB6F
:100820000121002230461646059101F0B9FBC3486C
:1008300004F0DCFB8079C0074121002804D1C048C6
:10084000083001F04FFA2121BD48083089B22A460C
:10085000593201F01BFBBB48B0490C4620185835F3
:100860001522294603F01AFBB14805992154B248D4
:100870002654AB4A166828360E9C3068106027E074
:100880001D46A64E00203075AA4C3053E520860048
:10089000A248825BA548A14909189E4803F0FEFAC8
:1008A0009E48805B9D4E30539D4919980860E52015
:1008B000800000243452E920800001213154A248F4
:1008C00030180822214603F0DFFAA04834542C46A1
:1008D000A0B223B0F0BDFF25FE35904E705D00281C
:1008E0000B9307910ED10021684601600698C0B2B3
:1008F000099A131A874A1018421D30463C3004F0FA
:100900003FFC0B9B707F00280A954FD00E94E5208A
:100910008400305B099A81181D46FB35C829B1D87F
:100920003018824940187B49491D154603F0B6FA34
:10093000305B40193053784876498978089A91425B
:1009400018D1305C002815D1012002F00DFE0028DE
:1009500010D021200001315C10220A433254E920DA
:100960008000079931547320C000002131500E9C43
:100970000A9D1BE000F0EAF9012804D121200001C2
:10098000305CC006F6D57320C000305800280E9C9D
:100990000A9D0BD121200001315C1022114205D1AA
:1009A00011433154E9208000032131540C98305C0C
:1009B0005849897800291ED000280ED11BA8694605
:1009C00008603046A83053494A1D0121099B04F0B4
:1009D000D7FB0C98305C00284DD0705D002824D0E7
:1009E0001BA8694608602320C00032183046A83092
:1009F000012160233DE00028494A0AD100216846D0
:100A000001603046A830434A521D099B04F0B8FBF0
:100A1000434A00203F4908704648012131523E4870
:100A200031541068806A106052E72B20C0003218E1
:100A3000029268460260394E3C3601210391002043
:100A400004903046049B04F09BFB304604F07AFB94
:100A50006846029A026020233046304E039904F023
:100A60008FFB1BA8694608603046A830294A0399C5
:100A7000049B04F085FB707F00282BD02C48305C51
:100A8000002804D1002198220D9803F0FDF92020C0
:100A9000305C0D9D68702220305CA87028462330A1
:100AA000082104F013FB707F00211A4A1170517065
:100AB000204902227252E91C002814D01BAB2022CC
:100AC0000846194603F0EAF9154801460868806AA5
:100AD0000860FDE600200F490870487015480221A3
:100AE00031520D98C11C1BA8202201F058F9002892
:100AF0000B9D00D0C6E60C98315C0A20002906D078
:100B00000A9AB15C002902D10120B054002030754E
:100B10002546C9E6D81F0020CA020000741800202C
:100B2000881F0020FFFF000085690000CB02000045
:100B3000C70200000E020000C9020000407ED0C0C3
:100B400000180020B2020000A5030000AD03000061
:100B5000F0B503AF81B04320C000144D2818FFF753
:100B6000EBFD044621200601A85DC0061AD5E92048
:100B70008000285CFF2804D0032805D102F07AFF0A
:100B800004E002F097FE01E002F0FCFE002809D12B
:100B9000A85DEF210140A95500202875044968523D
:100BA000D520C401204601B0F0BDC0467418002015
:100BB0000E020000F0B503AF85B009210C03594EB9
:100BC0000028049455D003967320C200564EB058A6
:100BD000E9218D00715D022901D1401EB05000282D
:100BE000214631D002920195504830181D214C0108
:100BF00032598118E5239D00735B9A1A03F04EF970
:100C00003059715B081A705321200401305DEF21C7
:100C10000140315500F09AF8315D10220A40012858
:100C200001D1002AF6D0C806049C2146019D029AF3
:100C30000AD502F0A7FE01460120002970D100204C
:100C400030750399FB31029A705D022818D1B258B1
:100C5000002A15D10320705502F00CFF0146012037
:100C600000295DD1002272550398FB300390104695
:100C70001EE02D4800220275E9218900405C1DE03C
:100C8000FF2801D003280FD100227277FF23FE3303
:100C90007F24A400355D0A24002D07D0F55C002DCB
:100CA00004D10124F45402E0039102E022460391AE
:100CB00032751F49715A1F4A8A18039E91B2330A2E
:100CC0001D4C6354911C1A4B174DE952521C92B2A1
:100CD000A654032805D0FF2803D0B0B2049A90424E
:100CE00011D0E520800000242C52E9208000012151
:100CF0002954124828180822214603F0C5F8104844
:100D00002C540B48295A0F48007889B2002803D088
:100D10000D4801F0A5FE02E0202003F095FC002024
:100D200005B0F0BD8569000074180020CB020000FA
:100D30000E020000FEFF0000D81F0020A5030000E7
:100D4000AD030000BA220020601E0020F0B503AF02
:100D50008DB01D2041018A4B00245C50E9208500A4
:100D6000585D0126FD220228049614D0012800D0E7
:100D700000E1E72086009C51E5208000195A0029F7
:100D800000D1E3E002968148185C01260396904268
:100D90000ED2029E4DE00291E5208500595B0929A3
:100DA00000D2D3E07748185C904213D2092221E0A8
:100DB000FE282FD0FD28029E00D0DBE0032900D2C0
:100DC000C4E0B3208000195C7548185C0002084339
:100DD00003212DE000D0CDE00B2900D2B6E0B520F4
:100DE0008000181800210A461E4600F0E8FF33462E
:100DF000595B0B221018814200D2A7E0039000201B
:100E00001918624A895C401C002927D1002607284E
:100E1000F6D933E00529029E00D297E0B320800086
:100E2000181800210A461C4600F0C9FF2346052178
:100E300003917321C90058509851022058555348C6
:100E40001818039E8119E52294001A5B921B1D4617
:100E500003F024F8285B801B285376E04B481918D0
:100E60000BAC082220461D4601F089F84848281896
:100E70000146224601F007F92B46049E41481D1801
:100E8000284600F085FF0190284600F063FF0446E5
:100E9000284600F07BFF0090284600F03FFF019BB2
:100EA00020430022002B049900D011460E43002E4F
:100EB00001D000285ED03748002B314B3CD1185C64
:100EC000002839D003200421002C064600D10E460C
:100ED0000099002900D00646002C21D07F208000F8
:100EE000185C002828D005AC0020207014256570FF
:100EF00029481918A01C2A4602F0D0FF16212046C6
:100F0000224600F0C3FFF0B21D4908181D494018E1
:100F100021462A4603F05CF800282BD0184B0BE042
:100F20001D481918F0B21818164A8018142203F038
:100F30004FF8134B00280CD021200001195C10221F
:100F40000A431A54039802995850049C20460DB045
:100F5000F0BD1248185C00280CD11048012119542A
:100F60007320C0001958491E195003980028049C8A
:100F7000ECD064E704480068012105F01BFFC0467F
:100F800074180020D3020000881F0020CB0200004C
:100F9000A5030000C7020000B3020000AD0300007B
:100FA000CD020000F0B503AF83B0334E307902902C
:100FB000324C204604F01AF8808801F05AF8204696
:100FC00004F014F801462E4DE81C0979042951D883
:100FD000012422468A4016210A424BD0B1786B2068
:100FE000000280290AD0002944D1264A0023137523
:100FF00045239B000322234EF2541F4EF278002A11
:1010000003D0802A29D0022A34D1002925D10020FA
:10101000022A224600D002461A49487F002807D1FA
:10102000019204F0ADF9019A16490028284621D012
:101030000120019048770D460021E977A9777F20AC
:1010400080002A54FF20FE3029540F482818192206
:1010500002F01AFF0D48019929546002711D094AD6
:101060001150FF20400002991154022001F0DCF8D9
:101070000920000303B0F0BDD81F0020407ED0C07F
:101080008269000074180020B2020000C90200004A
:10109000F0B503AFF3B05C4C204603F0A7FF8088A7
:1010A00000F0E7FF204603F0A1FF0079574E042827
:1010B00055D8012319468140162001424FD0544A89
:1010C0006B2000029178002902D0D178002947D105
:1010D000672000021179072942D308934D4C2068FC
:1010E000139009AD284605F059FE2246A8851560E3
:1010F0004949084207D009A800218185139810604A
:101100006F20060226E04548007D0A2822D1FB36E2
:101110003F4C60790A281DD8651D30A82922294630
:1011200002F0BCFE60798000089908432A5C281808
:101130008518681C002200F042FE06906D79324846
:1011400003F054FF334A817904200840012D0AD06E
:10115000002808D1314800210175139810603046ED
:1011600080B273B0F0BD4320C0002C4909183BA8E1
:10117000982202F093FE30A800210A4600F010FFEA
:101180002E46079671AD2846069900F044FE281DAC
:10119000314600F040FE69A90491684601601F488D
:1011A0003C300823089E31462A4603F0E9FF15AD7E
:1011B000284603F0C7FF61A9059168460160202316
:1011C00028463146049A1D4603F0DAFF0E4803F024
:1011D0000DFF8079400830406946412292000C6042
:1011E0004A6088600E483146059A2B4600F014FF8D
:1011F0006078C11C0B4A094B9952064A201807997E
:10120000817009200603A8E7407ED0C085690000F0
:10121000D81F0020881F0020FFFF00007418002046
:101220004C1800200E020000F0B503AF83B06B2015
:101230000402344EB578012D61D8307967210C0253
:10124000002D02D0192802D959E0052857D12E4C7B
:10125000204603F0CBFE808800F00BFF204603F011
:10126000C5FE2A49CC1C0079FF2848D002912648A7
:1012700003F0BCFE0079002841D004F081F800287A
:101280003AD0029CFE34707A012838D1B079717955
:10129000090201431E4B1984307AF1790902014396
:1012A000598424200121195409200003012D25D13E
:1012B000B17A0D460B350D2921D80291715D0529B2
:1012C0001DD8019018462530009131460B31029C03
:1012D000224602F0E3FD37200D4A1454E8B23018DC
:1012E000411C104615463230009C224602F0D6FDC5
:1012F00038202C54019C02E0029C00E00446A0B27D
:1013000003B0F0BDD81F0020407ED0C0826900002D
:1013100074180020F0B503AF81B067200602254D98
:101320002879012824D1244C204603F05FFE8088D0
:1013300000F09FFE204603F059FE00791F4CFF2865
:1013400015D01D4803F052FE007900280FD0E61E8C
:1013500004F016F800280BD06D79174803F046FE0C
:10136000092109030079854205D10E4600E0264691
:10137000B0B201B0F0BD2646FB36082DF8D800917A
:101380000120A8408B2149000842F1D00A4E304686
:1013900003F02CFE408800F06CFE304603F026FE81
:1013A000408828422646E3D0284600F0A3FC009E51
:1013B000DEE7C046D81F0020407ED0C0856900000F
:1013C0006D20000270470000F0B503AF93B00BAD85
:1013D000002120262846324602F056FD0A200C99AC
:1013E00001432971012400942846214600F03AFE69
:1013F00002202843214600F035FE5220E8800720D5
:101400002881AC7205226A7728460B3019A102F0B8
:1014100045FD0322AA772846183018A102F03EFDA8
:10142000174803F0E3FD801C2946324603F030FEE6
:1014300001AD10262846314603F048FE05AC28468B
:101440003146224603F0BCFE0D4E304603F0CEFD81
:1014500022301122214603F01BFE0AAC009D2570AC
:10146000304603F0C3FD401C21462A4603F010FE1F
:1014700013B0F0BD5A636F696E000000585A430004
:10148000407ED0C0F0B503AF83B001780025019154
:10149000002918D0441C0026012500222046294698
:1014A000029200F08CFC80B2084988420BD00849B7
:1014B000884207D0241D761CF0B201998842029D13
:1014C000EAD300E00225E8B203B0F0BD1DB1000090
:1014D0001EB10000F0B503AF9DB0A64A94788020FD
:1014E00020436B210D02802835D110790D90D078E2
:1014F0000690002C05D10698022802D30698802871
:1015000029D1D520C6013546FE3D03F039FF00281C
:1015100021D00E96984D28681B9011AE304605F0EC
:101520003DFCB0852E6028369449084216D011A89B
:10153000002181856F2000020E901B988E4C206048
:101540004320C0008F4908180021982202F09CFC1B
:101550000E9D30682060A8B21DB0F0BD09200503C3
:10156000002C14D08648874C205A2B2109010028D2
:10157000E3D0615A8142E0D183482018FFF782FF0F
:1015800000285CD000F00AF905467B4CE1E706989C
:1015900001282CD84320C0007A4C20180021982222
:1015A0000C9102F071FC734840790A2800D9AFE031
:1015B0002020205C764960542220205C75496054CC
:1015C000714820186B490C46611D292202F066FC07
:1015D0006079800001210A91084322185179069B05
:1015E000002B36D0927909021143072232E0644879
:1015F000644A105A2B210C01115B0D9BC9188142C2
:101600009BD8059400246846046010463C30594934
:10161000491D04912146049A0D9B03F0B1FD6846D3
:1016200004605848A8302146049A0D9B03F0A8FD99
:10163000544B0599585A0D9A801858528AE0212027
:101640000001215C10220A4322544B4C26682836A4
:101650007FE706224B4C4A4BE1521018002957D025
:101660000B902B20000107900C99215220463C3012
:10167000089003F067FD2046A830099003F062FD52
:1016800037244048005D113010AA107068460C994C
:10169000016008980A9B03F073FD3A48035D394CDA
:1016A00068460C9901602246253208980C4603F0E2
:1016B00067FD68460460384A7A4411230898214639
:1016C00003F05EFD21462E482E4A105A0A9BFD2843
:1016D00006D30FABFD221A705870000A03230224B0
:1016E0000FAA105568460160089803F049FD0D984F
:1016F000FB380B9BC01A10A90870079A2149895A18
:10170000C0B2019008181E491E4C615A884203D984
:10171000194C2068806A12E7002468460460154866
:10172000C018039008982146039A019B03F028FDF6
:1017300010A8029003786846046009982146039A2D
:1017400003F01EFD0F48079A805A029909780D4B45
:101750004018985207490C700949595A82B2012021
:10176000914202D103484470022008495852024C69
:10177000EFE6C046D81F0020881F0020FFFF0000B2
:10178000AE02000074180020850200000E02000066
:10179000190200001A020000D0570000F0B503AF94
:1017A00099B03348334900250D52334E30680F90BD
:1017B00005AC204605F0F2FAA08534602F490842B6
:1017C00007D005A885850F9830606F210C02294944
:1017D0003CE011AC68460460264D3C350121039184
:1017E000002628462246334603F0CAFC284603F06A
:1017F000A9FC68460460202304932846039D2946DB
:10180000224603F0BDFC1E481A49081831463246EC
:10181000194E00F0C5FB1B4803F0E8FB8079400837
:10182000294608406A46906064205060164D156055
:1018300016482246049B00F0EFFB6878801C0C4998
:101840000C4A5052092004030F981146306043207F
:10185000C00008180021982202F016FB05A8818D0F
:10186000002902D1204619B0F0BD306805F0A2FA77
:101870000E02000074180020881F0020FFFF0000E7
:1018800085020000407ED0C0D81F00204C180020E8
:10189000B0B502AF21200501FFF71CFE0446044845
:1018A000405DC00601D502F04BF92046B0BDC046F0
:1018B00074180020F0B503AF81B00146692285207D
:1018C000002902D0FFF76AFF020A0C4B0C4CE55AC4
:1018D0000C4E7255A91CE1526A1C92B2B0540A48CF
:1018E000007889B2002803D0084801F0B9F802E076
:1018F000202002F0A9FE01B0F0BDC0460E0200009B
:1019000074180020D81F0020BA220020601E00207A
:101910006D20000270470000F0B503AFD9B01D463E
:1019200014460E460146A52E7ED230A8324602F05D
:10193000B5FA0022002E09D00022D0B230A9085CEE
:10194000002803D1521CD0B2B042F6D302950094C5
:1019500070000192D1B2B142039006902DD203984B
:101960000690019C04960591E0B20021B0420FD28E
:1019700004990D1A30A90E18002109023078084385
:101980003A2105F06FF930706D1E761C002DF4D1F0
:1019900030A8059A825C2A487844405C0699491E22
:1019A0000691C9B207AB5854601C002A00D02046EB
:1019B000C1B2049EB1420446D5D3069CE1B2039B5A
:1019C00099420DD21F4878440078029D019E07AAD3
:1019D000515C814206D1641CE1B29942F7D301E027
:1019E000029D019E300611D01748784400782546A4
:1019F00021463246491ECBB207ACE054521EFF23AB
:101A00001A42F7D12C46A41B039B029DE0B2191A7F
:101A1000CEB2B5420DD307A909180098324602F09C
:101A20003DFA304659B0F0BD04480068022105F087
:101A3000C1F902480068032105F0BCF9881F0020A5
:101A4000B65400008854000064540000F0B503AFA1
:101A500095B001900AAD2A21284605F009F9022027
:101A6000284303901323002000900146019802911F
:101A7000405C0590009907200991401A01210791C7
:101A80008140059801400691DDB2142D0ED8152035
:101A9000441B68000AA90E183288D01C042A00D8FA
:101AA00010463080641EB61C002CF5D168000AA9CF
:101AB000085AFF35072800D81D460895E8B20021CE
:101AC0000491CC43132816D814210B1A4000039913
:101AD0000E180AA9085A328801250021072A00D8C1
:101AE0000D4640000E210140294360003152B61CD2
:101AF0005B1E1046EFD106980028079A00D10246D7
:101B0000149840000E21014011430AA8018509994B
:101B1000491C082908980346ADD10299491C082997
:101B20000346A3D1284804990A460B462546554347
:101B30000AAE755B1B0603D1002D01D1049B07E0A3
:101B400085239B00C358CEB230359D55491C0123D7
:101B5000921E15461A35E9D10A0605D1852189005C
:101B6000415830220A70012100230D2209931D469D
:101B7000EEB276000AACA419648B6D1C002C03D164
:101B8000EEB2072EF4D91BE0099C240608D1852467
:101B9000A4000459CDB22E266655491C012409948F
:101BA0008524A4000459D5B26D000AAE755B3035AA
:101BB000CEB2A555491C521C5B1CDCB2082CD6D3F6
:101BC000C8B215B0F0BDC04674180020F0B503AF20
:101BD00083B03B2002013F4D00262846314602F0EB
:101BE00053F92846314600F03DFAE52080002E5298
:101BF000E920800001210191295437482818082242
:101C0000314602F041F935482E54354803F0EEF9DB
:101C10004078012801D0FFF7D7FB314803F0E6F9FF
:101C20004078002841D02E4E304603F0DFF900897D
:101C30002884304603F0DAF940896884304603F09E
:101C4000D5F9007B24216854304603F0CFF9C07FDA
:101C500037216854304603F0C9F90446304603F092
:101C6000C5F9C27F284625300D34214602F016F909
:101C70003446204603F0BAF92026805D38216854A6
:101C8000204603F0B3F90446154803F0AFF9825D2E
:101C900032351A342846214602F000F9104803F084
:101CA000A5F9808800F0E5F902E0FF2000F022F8B5
:101CB0000B4803F09BF90078002809D102AC019D84
:101CC0002570074803F092F921462A4603F0E0F90F
:101CD00003B0F0BD74180020A5030000AD030000A0
:101CE000407ED0C04021415C01220A4002211143C4
:101CF00001707047D0B502AF82B0014601AC2046FA
:101D000000F0B0F9044803F071F9001D02222146E9
:101D100003F0BEF902B0D0BD407ED0C0D0B502AF56
:101D200004460A497944042202F052F900280AD1F3
:101D30001834074979440222204602F049F9014645
:101D40000120002900D00020D0BDC0462051000055
:101D500014510000B0B502AF04460A497944032289
:101D600002F036F9002809D11734074979440125D2
:101D700020462A4602F02CF9002800D000252846EB
:101D8000B0BDC046EE500000E1500000002070479A
:101D90004278012000216A2A00D008467047F0B539
:101DA00003AF0023002A08D00023521E94B2055D21
:101DB0000E5D6E403343002CF7D1D8B2F0BDF0B5C4
:101DC00003AF83B0019200900720C0430290082423
:101DD000002900D0029C1825002900D10D460026BC
:101DE00031460298C01D7043009A135C7F221A404E
:101DF000002E184600D11046019A002A00D0034652
:101E0000E8B2834059180519761E30460430E8D1EF
:101E1000084603B0F0BD01700A0A42700A0C8270D5
:101E2000090EC17070470000F0B503AF8DB000918E
:101E30000546124C20680B9001AE304604F0AEFF10
:101E4000B08526600E4908420ED1212020220D4B7C
:101E5000294603F0F3F90098002805D021200A490B
:101E6000084A012303F008FA0B98206001A9898D24
:101E7000002901D10DB0F0BD04F09CFF881F0020A7
:101E8000FFFF00004C18002000180020F0B503AF41
:101E9000A7B001AB07C30CAD284603F053F904AE5D
:101EA00068460660012428462146019A029B03F0F9
:101EB00067F9284603F028F9684603990160202352
:101EC00028462146324603F05BF927B0F0BDF0B555
:101ED00003AFAFB00646349C02250120FF2C00D88A
:101EE0000546359800280492039308D0142028430F
:101EF000C2B228A8314601F0D1FFEEB211E0EAB239
:101F000028A8154682183046FFF7C0FF210A002096
:101F1000002902D028A80170012028A901430C70D3
:101F20002E46029605AD284603F00CF920AC684613
:101F3000046014233343012628AA0192284631461F
:101F400003F01EF9284603F0FDF8684604602023DC
:101F500028463146224603F013F9019D029EA81936
:101F600014300422214601F099FF182131430398CF
:101F7000C3B22846049AFFF7CFFC2FB0F0BDD0B50E
:101F800002AF002A0BD05242491E0023DB431C46FD
:101F900054430C5D0470521C401C002AF7D1D0BD84
:101FA000F0B503AF97B0039202780B2A2CD20291BE
:101FB000002A15D0401C002504951824049B1946BE
:101FC0001E46435CE4B2A3409E19491C083C042908
:101FD000F7D1A9000DAB5E506D1C001D9542ECD1F0
:101FE00068460399016021200DA905AD2B4603F039
:101FF000A7F928460299FFF717FF0021202228465B
:1020000001F042FF17B0F0BD02480068022104F061
:10201000D1FEC046881F0020B0B502AF84B0144680
:10202000089A00290DD00A9D69460B604A600B4949
:102030000B4A002D00D111460322234603F03AF942
:1020400009E009996D462B606A60A96001210322AD
:10205000234603F051F904B0B0BDC04601060000AC
:10206000010400000A020A43FF21090251400180D5
:10207000704780B500AFFF218143000A884201D03C
:1020800002F0EAFF80BDF0B503AF83B00023DC436C
:102090000294C91D0191D21DC51D1E46009318460C
:1020A000029C7443135D0199095DC0B20818C11800
:1020B00029550120FF2900D80098761C082EEFD161
:1020C00003B0F0BDF0B503AF84B00023DC4303944C
:1020D000C91D0291D11D0191C01D1D4600931E46D0
:1020E000039C6C4301990B5D0299095D320602D095
:1020F000994202D9491E009A01E0FF31324689B265
:10210000CE1A06550126994200D316466D1C082D9D
:10211000E6D1F0B204B0F0BDF0B503AF83B0044631
:10212000452081000F4D685C012630420CD07002C2
:102130002A58029100216846016028463C30234617
:1021400003F01EF80298285C800709D570022A580F
:10215000002168460160A8352846234603F010F8A0
:1021600003B0F0BD74180020F0B503AF83B0FF20BA
:1021700040002B490290085C002846D001246602EA
:1021800088590578FC2D31D9FE2D1BD0FD2D41D16C
:102190002046FFF7C1FF224803469859411C995138
:1021A000029A995CFF319954C9B201292DD941781D
:1021B0000191857802242046FFF7AEFF2D02019899
:1021C000054316E020460C46FFF7A6FFA059401C29
:1021D000A051029AA15CFF31A154C9B2032914D9BC
:1021E00000210A46FFF7EBFD054604242046FFF7D1
:1021F00093FF0B4802469059001990510299505C88
:10220000001B5054284603B0F0BD06480068012169
:1022100004F0D0FD03480068022104F0CBFDC04665
:1022200074180020881F0020F0B503AFBBB01890D1
:10223000574802F0DBFE8579564E306839902FAC56
:10224000204604F0ABFDA0853460E9080122169217
:102250001140179181B2002900D0E7E319A8C01DF1
:10226000159021A8011D1391283014904A4B2DE0A0
:10227000E8B2FFF751FF484B169840021958491928
:102280001950185D401B18551869401B18611DE056
:10229000032018751AE0FF204500585D002800D182
:1022A000BCE3A04200D80446002C00D1B6E3E0B263
:1022B000FFF732FF384B1698400219580919195088
:1022C000585D001B58551869001B1861197D4BE0BB
:1022D000189902291BD17F218900595C002912D04D
:1022E0002946FE31595C002911D000216846016061
:1022F0007D2080001A1818463C30082302F040FF69
:10230000254B185D03E04521890003225A54C0B2D1
:10231000032800D899E3FE357F208000185C002850
:102320000ED0585D00280BD1169840021A58002193
:1023300068460160612080001818042302F020FF25
:102340000420FFF7E9FE144B169A50021958091D94
:102350001950185DFC3018559868401E9860D86870
:10236000401CD86011461975C8B20A28FCD8400034
:102370007844808840008744110061002003630096
:10238000D0004201D200F700510351035103C0466F
:10239000407ED0C0881F00207418002000269E6058
:1023A000DE601E61184615300822314601F06CFDD2
:1023B000ED4D3C35284602F0C5FEEB4CA8342046D6
:1023C00002F0C0FEE84A7F208000105C002800D1A7
:1023D00033E1452080001654FF20FE30105C0028B9
:1023E00000D11EE1684606601F2000011218042378
:1023F0002846314602F0C4FE684606602320C0002D
:10240000D9490A1803922020029028463146029B9F
:1024100002F0B6FE684606602720C000D2490A18BE
:1024200028463146029B02F0ABFE684606606023F8
:1024300020463146039A02F0A3FEFDE0986821E1B0
:102440001898022800D095E0FF25FE35585D7F21C1
:102450008C001A5D002A4BD0002849D1099521AD86
:10246000684605602320C0001E180896012100233D
:10247000059330460D940C462A4602F081FE304604
:1024800002F060FE684607950560202304933046FD
:1024900021462A4602F074FE19AE684606606120A5
:1024A0008000B1490D18284621463246059B02F0AE
:1024B00067FE284602F046FE68460660284621462A
:1024C0003246049D2B4602F05BFE089807992A4687
:1024D00001F0E4FC2720C000A34908183146A34EB0
:1024E0002A4601F0DBFCA04B0998185C0D995A5C58
:1024F0000921002A00D136E7002800D133E7002166
:10250000684601602B20C0001A1818463C30202372
:1025100002F036FE944B0A2125E7986838E0FF2444
:102520006500585D002800D178E2032800D88CE2CD
:102530000420FFF7F1FD169840028B4B1958091D36
:102540001950585DFC3058550821204200D10AE747
:102550004520840000201855FFF706FE824B1861C5
:10256000169818550721FEE61C690821002C00D199
:10257000F9E690E6FF204000185C002800D14DE20B
:10258000FFF7F2FD784B00219860D960042119759E
:102590000621002800D1E6E6FF204400185D00284F
:1025A00000D13BE2072800D84FE21898012811D14A
:1025B0004120C0001858D96881420BD1169D68028D
:1025C000195818461530082201F068FC8120800057
:1025D00065490D540820FFF79FFD16984002624997
:1025E00009580831604A11505F48005DF8305E4973
:1025F0000855FFF7B9FD5C4B186105201875FF20E1
:102600004400185D002800D108E21D69002D00D0AB
:10261000FEE19868401E9860D868401CD86004218C
:10262000A1E62320C000101802F08CFD612080007C
:102630004D49081802F086FD4B4AFF204500505DC9
:10264000032800D8FBE101200690460291591F2083
:10265000000110180424224601F020FC2046FFF758
:102660005BFDFE488059001DFC498851FB48405DD8
:10267000FC30FA494855FFF777FDF84B986006990A
:102680001975F54E002800D102E6FF246200985C1F
:10269000002800D1C2E10121189D022D129115D010
:1026A000012D109100D065E11446232800D8CCE11B
:1026B0002420FFF731FD012010904002E74B19580C
:1026C00024311950185DDC30185553E1119201285E
:1026D00000D8B4E101210F9149020E9159580A78AE
:1026E00000261096F643022A42D0012A00D188E043
:1026F000002A00D0A8E17F208000185C002800D0CC
:10270000A2E1D44C204602F071FC8088FFF7B1FCB6
:10271000204602F06BFCD1490079042808D0022839
:1027200006D0012800D08FE11798002800D18BE156
:102730000E9C0859401C0851119E885D401E88550A
:10274000C0B2232800D87AE12420FFF7E5FCC34873
:102750000146085924300851885DDC3088550F98AF
:1027600088770B46FCE0C04674180020881F0020C4
:102770007F208000185C002800D165E101252846F3
:10278000FFF7CAFCB54B10956D025859421C5A51BF
:102790001199585CFF305854C0B2232800D84EE13C
:1027A000FE34185D002800D193E045208600109883
:1027B00098552420FFF7B0FCA84B595924315951A2
:1027C000119C185DDC30185500220A969A55C0B24B
:1027D000072800D833E17D208000181808263246EB
:1027E00001F05CFB3046FFF797FC9C4B58590830D2
:1027F0005851185DF83018550A9810991954189DB9
:10280000AEE07F2292009A5C002A00D01CE14A7858
:102810001446083CE1B2302900D915E11546911C57
:102820000C91C9B2884200D209E18A4802F0DEFB6D
:102830008A490A460E9951588A1C51198919C91F8B
:102840006B46196022304321234602F0D7FC8349AE
:10285000002800D1F8E00E980858811C21AD2846C8
:10286000224601F01BFB7D492878322800D0EBE09E
:102870000E9C085901901398085124200D46FFF72B
:102880004BFC0C9A0198801828511199685C801AA9
:10289000685419A808221499FFF771FB002001461B
:1028A000024633464B43159CE45C6C4DED182B7F80
:1028B0009A1813192B77FF2B0F9A00D80246491C40
:1028C0000829EED101201090FF2B189D634B47D9AA
:1028D000BAE00024684604602320C00018182425AC
:1028E00021462B4602F04CFC2846FFF715FC012040
:1028F0000B904002594B195824311950119A985C89
:10290000DC309854C0B2072800D898E019A80822F3
:10291000FFF735FB20462146254632464243159BAC
:102920009B5C4E4CA418227F5118CA182277FF2AAC
:102930000B9900D82946401C0828EED1FF2A189D83
:1029400000D981E00820FFF7E7FB444B01201090FD
:1029500040021958083119501199585CF8305854F0
:102960007F208000185C002803D1452080000121D1
:102970001954394E1C46FFF7F7FB20610022022D47
:10298000129D294600D011467F239B00334CE35C07
:10299000109C23431B062B4600D0134619400028E9
:1029A00000D105460D4016984540179800282B4B3E
:1029B00001D1012D49D102201875FF256C00185D49
:1029C00000282BD0196901291DD1012046029959EF
:1029D0000978AE2902D1179A002A07D00022AE2921
:1029E000014600D11146169A5140D977FFF794FB62
:1029F0001A4B9859401C9851185DFF3018551969A9
:102A0000491E1961144E002900D161E44D1EC0B267
:102A1000A84200D80546002D00D029E4399830603E
:102A20002FA9898D00290DD13BB0F0BD2FA8002220
:102A3000828539983060094B1A7504F0BBF9064855
:102A40000068012104F0B6F9034E3068012104F05A
:102A5000B1F9C046407ED0C0881F00207418002005
:102A6000F0B503AF81B00D460446206D0026052267
:102A7000314601F009FA206D401D0C492A4601F04B
:102A80000DFA206D40197C21C9430D314171206D33
:102A900040198671226D012069460860E81D83B2E5
:102AA0008321204602F040FF01B0F0BDD81F002076
:102AB000F0B503AF81B0104D2870104C204602F0E5
:102AC00095FA343001262946324602F0E1FA002513
:102AD0002846294603F0AAFF204602F087FA34214F
:102AE000415C304603F0A2FF0549794428462A4656
:102AF00001F0A2FF01B0F0BD241C0020407ED0C038
:102B0000C245000080B500AF074802F06FFA3421DB
:102B1000415C0120002900D1084604497944002283
:102B200001F08AFF80BDC046407ED0C03C45000019
:102B3000F0B503AF81B005466878012400281FD0A6
:102B4000411E114A1268012400238A4200D01C460B
:102B50008A4215D17D26310101280FD002280FD1DC
:102B60000721284601F004FDF60080190749884234
:102B700004D30721284601F0FBFC81190448416178
:102B8000204601B0F0BDC046281C0020B80B000054
:102B90002C1C0020F0B503AF81B0054668780124F5
:102BA000002821D0411E124A1268012400238A42C3
:102BB00000D01C468A4217D17D263101821E032A8D
:102BC0000ED20721284601F0D3FCF60080190949EE
:102BD000884207D30721284601F0CAFC811901E089
:102BE000012801D104484161204601B0F0BDC04632
:102BF000281C0020B80B00002C1C0020F0B503AFEF
:102C000081B0054668780124002821D0411E124A6F
:102C10001268012400238A4200D01C468A4217D140
:102C20007D263101821E022A0ED20721284601F09C
:102C30009FFCF60080190949884207D307212846DE
:102C400001F096FC811901E0012801D1044841619D
:102C5000204601B0F0BDC046281C0020B80B000083
:102C60002C1C0020F0B503AF81B005466878012424
:102C700000281FD0411E114A1268012400238A42F5
:102C800000D01C468A4215D17D26310101280FD083
:102C900002280FD10721284601F06AFCF6008019AE
:102CA0000749884204D30721284601F061FC8119B5
:102CB00004484161204601B0F0BDC046281C0020F8
:102CC000B80B00002C1C0020F0B503AF81B0054606
:102CD0006878012400281FD0411E114A126801247F
:102CE00000238A4200D01C468A4215D17D2631013C
:102CF00001280FD002280FD10721284601F038FC07
:102D0000F60080190749884204D30721284601F0BC
:102D10002FFC811904484161204601B0F0BDC04636
:102D2000281C0020B80B00002C1C002080B500AF30
:102D30000020FDF73FFF002807D10549002008606B
:102D400004497944024601F077FE002080BDC04668
:102D5000301D00201244000080B500AF0120FDF7B7
:102D600029FF002807D1054900200860044979445B
:102D7000024601F061FE002080BDC046301D0020EB
:102D8000E643000080B500AF0649884205D00649F9
:102D9000884204D1FFF7CAFF01E0FFF7DDFF002002
:102DA00080BDC046020000800100008080B500AFF9
:102DB0000649884205D00649884204D1FFF7B6FF8C
:102DC00001E0FFF7C9FF002080BDC046020000807F
:102DD0000100008080B500AF0649884205D0064951
:102DE000884204D1FFF7A2FF01E0FFF7B5FF002002
:102DF00080BDC0460200008001000080D0B502AF57
:102E00000E4988420DD00E49884215D10024204633
:102E1000FEF750FD0B4804600B49794420462246DA
:102E200008E00120FEF746FD06490020086007493A
:102E30007944024601F000FE0020D0BD020000806F
:102E400001000080301D00203A43000024430000B0
:102E5000D0B502AF0E4988420DD00E49884215D137
:102E600000242046FDF734FC0B4804600B497944EC
:102E70002046224608E00120FDF72AFC06490020F2
:102E8000086007497944024601F0D6FD0020D0BD14
:102E90000200008001000080301D0020E64200009A
:102EA000D042000080B500AF0178490601D001F0A2
:102EB0001DFB80BDB0B502AF05460F2028400024A1
:102EC000012813D0022813D1002908D00B4802F0A2
:102ED000AFFA68B2002809DA02F0BEF806E0412035
:102EE00081000648002202F0DDFA04462046B0BD0B
:102EF00003480068022103F05DFFC046D81F002090
:102F0000881F0020F0B503AF85B0084E3078014629
:102F10000C39074A092937D87944097949008F447F
:102F200009815CB3B3B3B3B3B3ABC046341D002067
:102F3000555010B0FA4D012028760026EE612C463F
:102F40001834204602F056FAE861F649884200D16A
:102F500015E2002800D112E2F349884200D084E152
:102F600003202876EE61204602F044FAE86101F081
:102F700073F9AE602868002800D100E2E869E949E9
:102F8000884200D051E1FAE105287DD1E44C0120CE
:102F900020760025E56118342046049202F02AFAD2
:102FA000DF4A0146D1610498814200D013E1032039
:102FB0001076D5612046144602F01CFAE06101F05B
:102FC0004BF9A56020680028264600D1D7E1F069BA
:102FD000F649884200D0CEE0D1E1F24D01202876BA
:102FE00000200490E8612C4618342046164602F072
:102FF00001FAE861B04200D0C0E003202876002644
:10300000EE61204602F0F6F9E86101F025F9AE60C4
:103010002868002800D1B2E1E869E449884200D07C
:103020008CE0ACE1DF4D012028760026EE612C46D5
:103030001834204602F0DEF9E861DC49884200D10C
:103040009DE1002800D19AE1D549884200D025E1D0
:1030500003202876EE61204602F0CCF9E86101F009
:10306000FBF8AE602868002800D188E1E869CF4904
:10307000884200D0F6E082E1CE480078012803D1F2
:10308000B079000700D483E1C64E012030760025D8
:10309000F561344618342046049202F0ABF9F06131
:1030A0000499884200D06AE103203076F561204619
:1030B00002F0A0F9F06101F0CFF8B56030680028A7
:1030C00000D15CE1F069B94988421AD157E17068D2
:1030D000854200D353E102F0C9F9002800D04EE147
:1030E000B068F1683824604332681018002900D1B4
:1030F000F1E08847002800D0EDE0B068451CB560DD
:1031000030680028E3D13AE16868864200D336E1AE
:1031100002F0ACF9002800D031E1A868E968382451
:1031200060432A681018002900D11AE18847002856
:1031300000D016E1A868461CAE6028680028E3D1DC
:103140001DE17068854200D319E102F08FF9002873
:1031500000D014E1B068F168382460433268101878
:10316000002900D1B7E08847002800D0B3E0B0685C
:10317000451CB56030680028E3D100E16969002989
:1031800000D1FCE0642264290B4600D31346C91A1F
:10319000696100D0F3E084490968002900D1EEE0BC
:1031A000824A904200D1EAE0002800D1E7E0804C5A
:1031B0002068401C03F056FD216001F04DF8049892
:1031C000A8602868002800D1D9E0E86977498842DA
:1031D00000D0C3E0D3E01069002800D1CFE0734AEB
:1031E000914200D1CBE0002900D1C8E0F178490834
:1031F00001F0EEF9C3E06868864200D3BFE002F058
:1032000035F9002800D0BAE0A868E968382460439E
:103210002A681018002900D1A3E08847002800D0B0
:103220009FE0A868461CAE6028680028E3D1A6E0AD
:103230006868864200D3A2E002F018F9002800D0A6
:103240009DE0A868E968382460432A6810180029BE
:1032500000D186E08847002800D082E0A868461C9C
:10326000AE6028680028E3D189E0A8880490286827
:1032700003904A480146CC798B7928464D790A79E2
:10328000CE78C16868460660416012022A431B027C
:1032900023430398049901F059F870E02868002846
:1032A00036D0A8686968884232D202F0DFF8002878
:1032B0002ED1A868E968382460432A6810180029CC
:1032C00018D08847002815D1A868401CA860296834
:1032D0000029E7D11CE0012803D1B06844433068DD
:1032E00000190178490601D001F000F9B068401CCE
:1032F000B06044E0012803D1A8684443286800195D
:103300000178490601D001F0F1F8A868401CA860D6
:103310006868A968814232D302F0A8F82FE0C0465D
:103320002C1C0020445010B0555010B0686804990F
:10333000814224D202F09AF8002820D1A868E968D6
:10334000382460432A68101800290AD088470028CA
:1033500007D1A868401C0490A86028680028E5D11F
:103360000DE0012803D1A8684443286800190178BA
:10337000490601D001F0BAF8A868401CA86002F024
:1033800075F8002801D100F03BFE012005B0F0BD2A
:1033900009480068102103F00DFDC046341D0020CF
:1033A000555010B02C1C0020301D0020445010B08F
:1033B000281C0020E0200020881F0020F0B503AF6B
:1033C00083B01B4DA87F00280BD01A4C20463F30FD
:1033D00019A1072200F062FD46200021215401209E
:1033E00009E017482A182946153101A8FEF76AFE98
:1033F000002802D0002003B0F0BD3826AA5D0D4C95
:103400003F3429463231204600F048FDA85D202196
:1034100021542018401C85218900685001A8FEF71E
:1034200015FBA95D4018201800214170D7E7C04660
:1034300074180020DC1C0020554E4B4E4F574E0098
:10344000A5030000F0B503AFA3B0404C00200690E8
:1034500020703F483F4D291821A80822FEF78FFD14
:103460003D482E183046FEF791FC05463046FEF7E3
:103470008FFC002805D0354838A10A2203F0FEFB56
:1034800002E00B22002D52D032492078002833D19F
:10349000002D2CD1FF2000021840000A0126002830
:1034A000059606982B4905D0180A07A908702949DE
:1034B0000120022607AD049528430370A819891836
:1034C000234A891814252A46039300F0E7FC68462E
:1034D000039989B20160059941602E43B1B20DAEE6
:1034E000502304983246FEF7F2FC069931541748EF
:1034F0000DA903F06DFC174938268A5D2B340D4663
:103500003231204600F0CAFCA85D20212154201849
:10351000401C85218900685021A8FEF797FAA95D13
:103520004018201806994170012023B0F0BD059283
:103530000948084E3018FEF7F1FB002802D0338C02
:103540000C2201E0738C059A31469EE7DC1C0020BA
:10355000CB02000074180020D30200004F505F52CD
:10356000455455524E000000F0B503AFADB0B6491A
:10357000CA7F897F0024002902D0002A00D113E1EC
:10358000002A13D0002800D00EE12B20B3490022DE
:103590000A543F200A544820C870532088703220B3
:1035A0004870502008700A710124FDE0049029A899
:1035B00000240822214600F067FCA448A249085CC8
:1035C0000790032800D9EFE0002107980028069112
:1035D000039105916DD0002001220C900590099077
:1035E000069099480A928318984818180999425CDD
:1035F000491C002A03D101250729F8D900E0099DBB
:10360000924819182BAC082220461E46FEF7B7FC3C
:1036100029A801462246FEF736FD8D483618304669
:10362000FEF7B6FB0B903046FEF794FB044630469F
:10363000FEF7ACFB08903046FEF770FB0B99224674
:103640002043002806D10024002D00D1ACE0002941
:1036500000D1A9E07F48002921D17B49085C0028DE
:103660001DD003200423002A014600D11946089AE0
:10367000002A00D0014670187749734A5118142265
:1036800000F0A6FC002802D00C98059007E00698F0
:103690000006002401210691002800D084E0307843
:1036A0000A9A121809320C99491C07980C91814208
:1036B00097DB68480699090605D16349085C00282C
:1036C00001D0039C70E06049153127A829AAFEF7B4
:1036D000F9FC0028039C67D101240498002863D1D9
:1036E0008520820013A8584908928850079800281E
:1036F0005AD00598C0B20B90002601250A90099077
:10370000514840195149441851494018FEF740FBAF
:10371000002802D008352C463BE02046FEF736FB59
:103720000C902BA808222146FEF729FC2C460834D1
:103730000C9800282AD14448001944494018FEF743
:10374000EDFA0B210C22002800D0114649193E4AFF
:10375000134622322033002800D01A4613881A0A52
:1037600000200125002A03D00DA8027001200225A7
:103770000DAA10430A9303700995E8B21018324A53
:103780005118324A8918142200F088FB0B98B04275
:103790000DD02D4800192D49405C2018451C761C81
:1037A000012407988642ABDB20462DB0F0BD0C9873
:1037B000002810D1012069460A9A92B20A60486036
:1037C0000998C1B214310DA813AC50232246FEF75C
:1037D0007EFB00212154214C13A9204603F0F8FA66
:1037E00038251948425D26462B36014632310C9168
:1037F000304600F053FB1449485D20220B923254AE
:103800003018401C089A88502BA8FEF71FF90E4963
:103810004A5D80183018002646703F3420460C99C7
:1038200000F03CFB0849485D0B9A22542018401CCC
:10383000089A885027A8FEF709F90349495D4018FE
:1038400020184670B0E6C04674180020CB02000075
:10385000D3020000C7020000B3020000DC1C0020FD
:10386000F0B503AF83B00E4C26462B366846066093
:103870000C48A830012500232946324601F080FC7F
:1038800020464330694608230E604B6088602B2138
:1038900005A2204601F05AF9284603B0F0BDC04603
:1038A000DC1C002074180020252E2A482E2E2E25E0
:1038B0002E2A4800F0B503AF81B000242046FFF760
:1038C00053FE00284CD028480026066027480421D3
:1038D0000160274D2848784428600B2068602748FD
:1038E0007844286126487844E86003202876EE6111
:1038F0002846183001F07EFDE86100F0ADFCAE60B6
:103900002868012400282BD0E8691A49884216D17A
:1039100026E06868864223D201F0A8FD00281FD166
:10392000A868E968382670432A681018002909D069
:103930008847002806D1A868461CAE602868002881
:10394000E7D10DE0012803D1A86846432868801913
:103950000178490601D000F0C9FDA868401CA860A4
:10396000204601B0F0BDC046281C0020301D0020BC
:103970002C1C0020445010B0923A0000A1F4FFFF2C
:10398000ABF2FFFFB0B502AFFFF75CFD7320C000E4
:103990002C490858E72292008958491C0B1A2A48DA
:1039A0003F30142129A201F0D1F82B4800250560F1
:1039B0002A48032101602A4C2B48784420600920C2
:1039C00060602A487844206129487844E060217684
:1039D000E5612046183001F00DFDE06100F03CFC8F
:1039E000A560206800282BD0E0691E49884216D1C6
:1039F00026E06068854223D201F038FD00281FD1FF
:103A0000A068E1683825684322681018002909D0A9
:103A10008847002806D1A068451CA56020680028BA
:103A2000E7D10DE0012803D1A06845432068401983
:103A30000178490601D000F059FDA068401CA06043
:103A40000120B0BD74180020DC1C00206F7574705C
:103A50007574202325640000281C0020301D0020E0
:103A60002C1C0020445010B0163C0000E5F3FFFF72
:103A70002FF2FFFFF0B503AF81B0FFF79FFC0024EA
:103A800000284CD027480026066027480221016004
:103A9000264D2848784428600720686026487844E6
:103AA000286126487844E86003202876EE6128469D
:103AB000183001F09FFCE86100F0CEFBAE60286892
:103AC000012400282BD0E8691949884216D126E044
:103AD0006868864223D201F0C9FC00281FD1A8687B
:103AE000E968382670432A681018002909D08847E9
:103AF000002806D1A868461CAE6028680028E7D1D7
:103B00000DE0012803D1A868464328688019017890
:103B1000490601D000F0EAFCA868401CA8602046D5
:103B200001B0F0BD281C0020301D00202C1C0020FE
:103B3000445010B0343D000033F3FFFFBDF1FFFFF0
:103B4000B0B502AFFFF78CFE264800250560264879
:103B500002210160254C27487844206007206060DE
:103B600025487844206125487844E0600320207689
:103B7000E5612046183001F03DFCE06100F06CFB8F
:103B8000A560206800282BD0E0691949884216D129
:103B900026E06068854223D201F068FC00281FD12E
:103BA000A068E1683825684322681018002909D008
:103BB0008847002806D1A068451CA5602068002819
:103BC000E7D10DE0012803D1A068454320684019E2
:103BD0000178490601D000F089FCA068401CA06073
:103BE000B0BDC046281C0020301D00202C1C002029
:103BF000445010B0F83D000097F2FFFF5DF1FFFF69
:103C0000F0B503AF81B02D4E3446C834204603F0E2
:103C1000E7F820212154201800254570C720315491
:103C200027480560274802210160274C284878442E
:103C30002060072060602748784420612648784447
:103C4000E06003202076E5612046183001F0D2FBC9
:103C5000E06100F001FBA560206800282BD0E0693E
:103C60001A49884216D126E06068854223D201F0C5
:103C7000FDFB00281FD1A068E16838256843226851
:103C80001018002909D08847002806D1A068451CD3
:103C9000A56020680028E7D10DE0012803D1A068C5
:103CA0004543206840190178490601D000F01EFC08
:103CB000A068401CA060012001B0F0BDD81F00200A
:103CC000281C0020301D00202C1C0020445010B067
:103CD000B235000015F2FFFFEFEEFFFFB0B502AF07
:103CE0008CB00E4D28680A906C46204603F056F8BA
:103CF000A0852C600A49084205D10020C04301F08C
:103D00005BFB6846808D0A9A2A60010401D10CB0E1
:103D1000B0BD81B2104603F04DF8C046881F0020A8
:103D2000FFFF00000148002101607047881F00204C
:103D3000F0B503AF83B002920C4601904A4DAC42FD
:103D40000FD0494E40253046294602F091FF029897
:103D50004028024600D32A463046214600F09EF80D
:103D6000414DA878052800D976E0C046784400790E
:103D700040008744020C1371711F0026AE716E71F2
:103D80002E71EE7040212846019A90470BE0E81C06
:103D9000042101F09BF94021284601E032484021EE
:103DA000019A904700263148002101603046C0B298
:103DB00003B0F0BDE8782D4C2168090A002688423E
:103DC000F1D128792168C9B28842ECD1284B0298F8
:103DD000C018051F206800280ED029461940254824
:103DE000026891421E4600D905682A4632402248A0
:103DF00000681D49491D21E001931B4988794979D3
:103E0000090201431D48016001684122920091426C
:103E1000C9D80168174801601749194A0A60194949
:103E2000029A55182946019E31400268914200D9F4
:103E300005682A4632400C48C11D114800F02EF892
:103E400035400D480168491901600A480168491B5D
:103E500001602068401C206006480168012002269D
:103E60000029A4D19FE7C0468C1F0020CC1F002052
:103E7000FFFF0000D41F0020DC200020D01F002006
:103E8000D81F0020F9FF010080B500AF0B46002AC3
:103E900003D011461A4602F0F5FE80BDB0B502AF60
:103EA00088420DD9002A14D0491E5242401E0023D8
:103EB000DB431C4654430D5D0555521CF9D108E007
:103EC000002A06D000239CB20D5D05555B1C521ED6
:103ED000F9D1B0BD0148002101607047CC1F00201E
:103EE000F0B503AF87B0019303920E460490002E05
:103EF00042D0314D00202860304931480860314CB3
:103F0000601D3B210590029102F0B2FE0520A070D9
:103F10002868000AE07028682071B1B2286800287B
:103F2000069109D03B290A4600D3029A234803464A
:103F3000196805981E460AE0300A6071A67139209A
:103F400039290A4600D302461C4E3168E01D05920D
:103F5000FFF7A4FF184D30683146059E80190860B0
:103F60002868401C286040212046049A9047069803
:103F7000861B15480642C3D10F48002404608020E8
:103F80000199014201D001F067F8019880060FD431
:103F90000C4C40212046039A9047C2B2402AF8D8E0
:103FA00004982146FFF7C4FE0228F2D107480468AE
:103FB000A0B207B0F0BDC046CC1F0020DC2000201E
:103FC000D81F00208C1F0020FFFF0000D01F002002
:103FD000F0B503AF431E491E52420020C443002ADD
:103FE0000CD0264656438D5D9E5D521CAE42F6D0E7
:103FF0000020C1430120AE4200D80846C0B2F0BD47
:1040000080B500AF01F032FA00280BD106486021DC
:1040100001700021417002228270C170017105217E
:1040200001F006FA80BDC046341D0020D0B502AFB5
:104030001548C078401E072824D8C0467844007927
:104040004000874403181F141F1F1F1C0F4C012121
:10405000204602F064F9204602F04AF90C48007844
:1040600001280FD10B480068102102F0A3FE074879
:1040700002F058F9D0BD054802F058F9D0BD034808
:1040800002F052F9D0BDC046341D0020942100201A
:10409000E0200020881F00207F2101400148405C73
:1040A0007047C046E120002080B500AF0F4801797D
:1040B000042908D0022911D001290ED1811D0D48F3
:1040C00002F045F880BDC2787F2111404279084B4B
:1040D0005A54821D074802F069F880BDC2787F21DA
:1040E0001140821D034802F0A2F880BD341D00205B
:1040F000E120002094210020F0B503AF83B00192AD
:1041000002465D1C002B00D11D460198FF2844D8B3
:10411000254E50203070019CE01C0091010A717006
:10412000B070802002430292F270202030717471CE
:104130000621304601F07CF90098214601F078F91B
:10414000002D0DD129E0002D02D06C1E012D26D0AE
:10415000152902D1B079000721D500F029F82546AC
:1041600001F084F9002801D1FFF74AFF4B208100BC
:1041700000243046224601F095F931780628E2D134
:104180001029E0D1F078029A9042DCD130790228EF
:10419000D9D17079019A9042D5D103B0F0BD0348CE
:1041A0000068102102F006FE341D0020881F002048
:1041B00080B500AF0D48827841780902114300783C
:1041C000102808D00F280DD1002004290DD1FFF7A9
:1041D0002DFF012080BD0020062906D3FFF764FFD4
:1041E000012080BD0220FEF78DFE80BD341D002021
:1041F00080B500AF0A46014682201423FFF77CFFFA
:1042000080BD0000D0B502AF072000F007FF0A48CC
:104210000024047009480480094804800948048087
:1042200009480470FFF756FE084804600848046017
:1042300008480460D0BDC046E7200020E8200020E8
:10424000EA200020EC200020E0200020F0200020C8
:10425000F4200020F8200020014800210160704770
:10426000F0200020B0B502AF0D460446206B0028B8
:104270000CD000F0BBFE01462046884700F0B6FE99
:104280000021002810D0012800D00446002D07D0BE
:104290002046A8470021002806D0012800D0044667
:1042A0002046FEF7FFFD01210846B0BDB0B502AFC4
:1042B0008EB00C460546686B00280CD000F096FEC8
:1042C00001462846884700F091FE0021002816D0BC
:1042D000012800D00546684638222946FFF7DEFD52
:1042E000686A0490A86A0590002C04D02846A0476C
:1042F0000021002803D06846FEF7D4FD01210846BE
:104300000EB0B0BDB0B502AF0D460446E06A00285D
:104310000CD000F06BFE01462046884700F066FE98
:104320000021002810D0012800D00446002D07D01D
:104330002046A8470021002806D0012800D00446C6
:104340002046FEF7AFFD01210846B0BDF0B503AF32
:1043500087B0029303920591002976D004900D98BE
:1043600001900C98009000260696344601F07EF8E5
:10437000002855D138207043049D2E18364B1A68FA
:104380000121964200D0069906912856002841DA6C
:104390002020355C0221715E4A1B0398824239DC81
:1043A0006918F28889180398884233DA0421705E0C
:1043B000421B02998A422DDC40193189401802992A
:1043C000814227DA1868864210D0186800280DD07C
:1043D0000198002805D03046019988471E4B0028D7
:1043E00018D018680199FFF73DFF08E000980128F0
:1043F00009D002280ED130460199FFF783FF164BF2
:10440000002807D023E030460199FFF74FFF124BF9
:1044100000281FD1641CE6B205988642A6D300E0AE
:104420000D4B0698000610D0186800280DD001F03A
:104430001DF80949002808D108680199FFF712FF03
:10444000054D002801D00020286007B0F0BD0020F5
:104450001860FAE71E60F8E7F0200020F0B503AF1F
:104460008BB00C46014604AD1C2228460392FFF790
:1044700015FD2168E980626802952A81A0681A4EBC
:1044800065233546337092B242438BB25343D90809
:104490004E1C0722134200D10E46314601910426DC
:1044A000864070181D30010A6970A87003212846E3
:1044B00000F0BEFF0298039900F0BAFFA0682870D0
:1044C0000121284600F0B4FFE06800F08FFDB1B292
:1044D00000F0AEFF019885B2206900F087FD294603
:1044E00000F0A6FF0BB0F0BD341D0020F0B503AF07
:1044F00081B0044620787F260640002E2ED0E06949
:1045000000281DD000F072FD0546052E02D1A07EC8
:10451000002825D0284602F063FC06461348652192
:10452000017031461C310A0A42708170032100F08B
:104530007FFF1C21204600F07BFFB1B228460BE034
:104540000A4865210170002141701C2585700321F6
:1045500000F06EFF2046294600F06AFF01B0F0BD72
:1045600020462946FFF77AFFF8E7C046341D0020B1
:1045700080B500AF0A46C16900F001F880BDF0B512
:1045800003AF81B0164604460025002C1CD02078CD
:10459000072801D0022817D1084600F027FD00287F
:1045A00012D002F01DFC4643E08886420CD9311A35
:1045B0007D2000014843A17E02F0CEFAA17A490095
:1045C000C9B264224A431518284601B0F0BD000064
:1045D000F0B503AF81B00446002C2ED01848026815
:1045E0008A4203D1174A13685B1C136006680E43A6
:1045F000144A1568002901D0066005E00023036015
:1046000013600123DB071E430068884201D00020AD
:104610001060082D0ED30321284602F023FB012051
:10462000800730430029014600D03146002902DBD3
:10463000084600E030462946A04701B0F0BDC0461C
:10464000F4200020F8200020F0B503AF81B004462C
:104650000F20044206D02046FEF72CFC0546A8B2E7
:1046600001B0F0BD1026264000292AD0002E28D106
:104670003D48007807280BD0002804D02046FEF7DC
:1046800019FC00280AD039480068092102F092FB81
:104690003D48784400222023FFF722FC00253248C1
:1046A000057033480580334805803348058033481A
:1046B0000570A006D3D4FFF7A3FC200601D500F0B7
:1046C000CBFC002E0CD1600649D427480021017094
:1046D000274801802748018027480180274801702A
:1046E000284C244E08E0FFF7DFFC3088002803D078
:1046F00033E00220FEF706FC00F0B8FE002801D1EE
:10470000FFF77EFC4B208100002520462A4600F062
:10471000C9FEC11EA27863781B021343994210D1CF
:1047200016490978002902D0FFF742FDE4E7217815
:1047300010290FD00F29DCD1042802D1FFF776FC15
:10474000DAE70020084908700949088030800A49E2
:104750000880D1E70628C6D281E735887FE705487B
:104760000088074945187AE7E7200020881F0020C5
:10477000E8200020EA200020EC200020E02000209B
:10478000FBFF0000341D00205BFBFFFFF0B503AF13
:1047900083B006465D4C25461435382228463146FE
:1047A000FFF77CFB2169A0680029029503D08847A8
:1047B0000346A06803E01C214143226853180025EA
:1047C00000280ED02269411E002A0DD0084601960D
:1047D0002E461D4690472B463546019E0246A06850
:1047E00006E028462A4603E01C224A4321688A182C
:1047F0006168491E88420ED22169401C002906D0FA
:104800000193154688472A46019B054603E01C2173
:10481000414320684518707840280ADC202822DCB3
:10482000102834D0202867D15969002000296BD185
:1048300051E0802822DC412833D042285CD15969DC
:104840000020002960D1D96800295DD16268511E1D
:10485000012A59D0A2688A4256D0E968002953D16A
:104860002869206348E0212831D0222844D1194604
:1048700014315A690020002A2FD145E0822835D012
:10488000812839D1A1680020002935D13CE0D968C0
:104890000020002938D02163587E00282CD0E082E7
:1048A0002AE05969002000292ED1D96800292BD18E
:1048B000A168002928D06168012925D0D168002984
:1048C00022D1516900291FD11069206314E0596970
:1048D0000020002918D01946103108682063187E7E
:1048E000002809D0E0820820A08505E06068A16862
:1048F000421E0020914207D0E268002A029803D0AD
:10490000143418462146904703B0F0BDFC20002027
:10491000F0B503AF81B005463E4E3169B06800295D
:1049200002D08847014603E01C214143306841180A
:1049300001243948854215DD3848854218D0384869
:1049400085421DD03748854260D10868002847D08D
:104950008C6800F04BFB0146F268204600F06CF8D2
:10496000002453E0304885420AD02B4885424DD17F
:104970007168B0684A1E00240121904205D345E0C9
:104980000024E143B068002840D04018B0602748B8
:1049900000240460264DAC602868002836D0E86901
:1049A0002449884232D0002830D00024204669684B
:1049B00088422BD200F05AFD002827D1A868E96868
:1049C000382670432A681018002914D08847002818
:1049D00011D1A868401CA86029680029E7D115E01A
:1049E0004868002812D00C4600F000FB0146A06881
:1049F000884700240AE0012803D1A86846432868B4
:104A00008019FEF74FFAA868401CA860204601B044
:104A1000F0BDC046FC2000200200008002000040E3
:104A2000010000400300008001000080F020002011
:104A30002C1C0020445010B0F0B503AF83B002929C
:104A40000D4601903849002000904860002D17D095
:104A5000394979441C2428462246FFF7B9FA3249DD
:104A600000280DD0354E7E444868401C48606043A5
:104A7000281831462246FFF7ABFA2B490028F3D11C
:104A8000019A1046013005D048689042009800D342
:104A9000104688600D6000250298C8600D61234CA7
:104AA00027487844206009206060264878442061C7
:104AB00025487844E06003202076E56120461830E0
:104AC00000F098FCE0611A490D60A560216800299A
:104AD00027D01849884216D123E06068854220D249
:104AE00000F0C4FC00281CD1A068E16838256843A8
:104AF00022681018002909D08847002806D1A0682C
:104B0000451CA56020680028E7D10AE0012803D1F0
:104B1000A068454320684019FEF7C4F9A068401C0E
:104B2000A06003B0F0BDC046FC2000202C1C00207B
:104B3000F0200020445010B07E3200006A320000A5
:104B40003630000061FEFFFFD7FCFFFF81B0F0B5FB
:104B500003AF94B016460D460E901993022D00D265
:104B60002AE20E98002800D126E2002E00D123E28E
:104B700000210E9809912A46FFF786F919A80F908F
:104B80003078002800D117E20999C9436B1E0891BB
:104B90000A46099D03E070194078521E6D1CC0B290
:104BA000002801D02528F6D105929D4200D31D464C
:104BB0000E9831462A461C46FFF770F90B94631B8A
:104BC0000E984219002B00D1F6E17019715D25296C
:104BD00000D0ABE004930792401C002120220A92EF
:104BE0000A220392029106910D910B4602210C912B
:104BF00006461A463178761C0023622941DC0846B5
:104C00002538232800D994E04000C04678448088A5
:104C1000400087442D0186018601860186015100EE
:104C20008601860123005800860124002400240008
:104C300024002400240024002400240024008601F1
:104C4000860186018601860186018601860186012C
:104C5000860186018601860186016C00C9E730293C
:104C60000A98034600D10B460D9C002C00D0034649
:104C70000A206043401830380D9030460A9313469E
:104C8000B4E76F2911DD7039082900D949E14900DD
:104C90007944898849008F445100440144012E0021
:104CA00044015900440144015100632954D064294E
:104CB00057D068291DD034E13078732800D030E116
:104CC00030460C9B0DE030782A2800D029E171781D
:104CD000701C0123482904D0682902D0732900D010
:104CE0001FE10F990A1D0F92096802917EE70120CA
:104CF0000690102003900C9B0F98011D0F9103212B
:104D00000A405B1C0168012A00D1B8E0022A00D1E8
:104D100004E1032A304600D168E7089C2546049B3D
:104D2000481940786D1C0028FAD1ABE006460E9277
:104D300009E1582900D0F4E0012006900F98011DE8
:104D40000F91026800200590102514E00F98011DB6
:104D50000F91026800200CE00F98011D0F91006870
:104D600087E00F98011D0F910068C11742184A4053
:104D7000C00F05900A25012495420E9214D80122F5
:104D800028460B920446294601F0E6FE0B9988421C
:104D900009D1284660430D99491E0D910E9988420C
:104DA0002246EED900E00C460C952546002003462D
:104DB000C143059C002C00D121460D980B91401851
:104DC0000A99CAB2302A06D1002C04D010A92D238A
:104DD0000B7000240123811E0D290DD8411E0BD01C
:104DE00010A805941C46204301F04CFF0D980019B3
:104DF000059C0B994018431E2946002C019603D0B0
:104E000010A82D22C2545B1C0698002903D000284C
:104E100003D06CA002E01C4616E06EA00D901C466C
:104E20000E980E4601F098FE0C9D294601F01AFFDF
:104E30000D98405C10A908553046294601F08CFEBB
:104E4000641CB5420146EBD9049B9C42254600D325
:104E50001D4610A9079C20462A461E46FFF71EF84D
:104E6000701B61190E9103460028019E6BD1A3E0CF
:104E70002520079908700498401E491C5FE0029D98
:104E8000089C049B03981028079861D1002D6AD0D4
:104E90000E9800190E900B9AA01A059B834200D819
:104EA00003460C935C430A94601C079000200E9C00
:104EB00000910E940A9BE3180D90095C0F200840A6
:104EC00009090C9CA418641C022C75D3069C012CA7
:104ED00003D0002C08D13FA400E03AA4C9B2615C21
:104EE0001970C0B2205C58700798904264D0921E2E
:104EF0000E9CA41C0D98401CA8420099D9D30D907B
:104F000008990B98081A059B834200D80346084667
:104F1000584320180E909818431C38E00878002851
:104F200023D00520049D052D2C4600D30446079868
:104F30002CA12246FEF7B2FF281B079909190E91F2
:104F40000346002838D030780028089934D01FE66E
:104F50009D4200D31D462A461C46FEF79FFF601B5C
:104F6000079949190FE00E90EDE7049B029C9C42C3
:104F700000D31C46202107982246FEF785FF04989F
:104F8000001B079909190E910346002814D00D98AB
:104F9000A842D8D9421B9A4200D31A4620210E9D1E
:104FA00028460D921C46FEF76FFF0D98241A2D1807
:104FB0000E952346002CC6D1002014B0F0BC02BCD4
:104FC00001B0084730313233343536373839414251
:104FD00043444546303132333435363738396162EF
:104FE000636465664552524F5200000080B500AFC1
:104FF0000449884204D30449884201D200F006F8EB
:1050000080BDC0460000D0C0807ED0C07A46024934
:10501000C91C891A401A70470D50D0C080B500AF26
:1050200084B00A4901910A490A680292039001A8D2
:10503000004601DF00460748019A824201D104B0D0
:1050400080BD0868042101F0B5FEC046370100604C
:10505000881F0020C601009080B500AF82B00948CB
:1050600000900948016801916946084601DF014640
:105070000649009A8A4201D102B080BD006804212D
:1050800001F098FE00020060881F0020F1020090ED
:10509000D0B502AF86B00A4B01930A4B1C6802944C
:1050A00003AC07C401A8004601DF00460648019989
:1050B000814201D106B0D0BD1868042101F07AFE0A
:1050C0007F030060881F0020BC03009080B500AF04
:1050D00084B00A4A00920A4A13680193029003912D
:1050E0006846004601DF00460649009B8B4201D11D
:1050F00004B080BD1068042101F05CFE2C05006046
:10510000881F00206705009080B500AF84B00A4971
:1051100001910A490A680292039001A8004601DF42
:105120000046074A019B934201D104B080BD086844
:10513000042101F03FFEC0467F060060881F00206A
:10514000F806009080B500AF84B00A4901910A4981
:105150000A680292039001A8004601DF0046074A50
:10516000019B934201D104B080BD0868042101F085
:1051700021FEC046DB080060881F00206408009004
:10518000B0B502AF88B00B4C01940B4C256802956A
:1051900003AD0FC50C98079001A8004601DF00463B
:1051A0000649019A8A4201D108B0B0BD20680421A5
:1051B00001F000FEA60E0060881F0020460E009041
:1051C000D0B502AF86B00A4B01930A4B1C6802941B
:1051D00003AC07C401A8004601DF00460649019A56
:1051E0008A4201D106B0D0BD1868042101F0E2FD69
:1051F000C3180060881F0020EF180090B0B502AF00
:1052000088B00B4C01940B4C2568029503AD0FC57B
:105210000C98079001A8004601DF00460649019A54
:105220008A4201D108B0B0BD2068042101F0C2FD5E
:10523000341A0060881F0020CD1A0090B0B502AF6C
:1052400086B00A4C00940A4C2568019502AD0FC542
:105250006846004601DF00460649009A8A4201D1AD
:1052600006B0B0BD2068042101F0A4FDED29006066
:10527000881F0020AE290090B0B502AF86B00A4C5E
:1052800000940A4C2568019502AD0FC5684600469A
:1052900001DF00460649009A8A4201D106B0B0BD3E
:1052A0002068042101F086FD2E2A0060881F00205E
:1052B000742A0090B0B502AF88B00C4C00940C4C2E
:1052C0002568019502AD0FC50C9806900D980790C2
:1052D0006846004601DF00460649009A8A4201D12D
:1052E00008B0B0BD2068042101F064FD0133006006
:1052F000881F0020F3330090B0B502AF8AB00D4C88
:1053000001940D4C2568029503AD0FC50E980790CA
:105310000F9808901098099001A8004601DF0046F8
:105320000649019A8A4201D10AB0B0BD2068042121
:1053300001F040FD3E340060881F00208F34009053
:10534000B0B502AF88B00B4C01940B4C25680295A8
:1053500003AD0FC50C98079001A8004601DF004679
:1053600006480199814201D108B0B0BD20680421EE
:1053700001F020FD2B510060881F00207F5100901C
:1053800080B500AF82B009480090094908680190D3
:105390006846004601DF0046064A009B934201D161
:1053A00002B080BD0868042101F004FD8958006046
:1053B000881F00204558009080B500AF84B00A498E
:1053C00001910A490A680292039001A8004601DF90
:1053D00000460748019A824201D104B080BD0868A6
:1053E000042101F0E7FCC046E15F0060881F002057
:1053F0006F5F009080B500AF84B00A4901910A49FF
:105400000A680292039001A8004601DF0046074A9D
:10541000019B934201D104B080BD0868042101F0D2
:10542000C9FCC04658610060881F00201F610090C1
:1054300080B500AF84B00A4A00920A4A136801930B
:10544000029003916846004601DF00460648009935
:10545000814201D104B080BD1068042101F0AAFC92
:105460001C6A0060881F0020F36A009080B500AFBE
:1054700082B00948009009490868019068460046D2
:1054800001DF0046064A009B934201D102B080BD75
:105490000868042101F08EFCCF6B0060881F00209B
:1054A0007F6B0090D0B502AF86B00B4B01930B4BD6
:1054B0001C68029403AC07C401A8004601DF004643
:1054C0000749019A8A4202D180B206B0D0BD18685D
:1054D000042101F06FFCC046D16C0060881F0020E1
:1054E0002B6C0090044800210170044801220270D6
:1054F000034801707047C046482100204921002020
:105500004A210020F0B503AF81B014460D4606468F
:10551000012C04D10B4800214022FEF7B5FC0948BC
:1055200031462A46FEF7BAFC07480178002901D027
:1055300000210170012C03D102484021FEF758FEE2
:1055400001B0F0BD4B210020492100200348017823
:10555000002901D1012101707047C0464A21002075
:1055600080B500AF82B001228321049B402B04D17F
:105570006B461A60064A7A4403E06B461A60034A97
:105580007A44022300F0D0F902B080BD6C270000FD
:1055900078270000F0B503AF89B00025089507957E
:1055A0000E9E01228324402E08D869460A602B4AA9
:1055B0007A440223214600F0B7F945E00596042617
:1055C000314307293BD10292039404904020069373
:1055D0001E5C002E0DD0069C4134E8B2032101F080
:1055E00041FB605D19A2515C414061556D1CAE42AA
:1055F000F3D145200699085C4630059A8242049C06
:105600000AD0684602990160154A7A44022320466E
:10561000039900F089F9069941310D483246FEF7A9
:105620003DFCFAF75DFD212001010A48415CC906F5
:105630000AD40949415A2046FDF712FA04E0E11D57
:10564000C9B2034600F092FB09B0F0BD42544300DA
:10565000D81F0020741800200E0200003C27000014
:10566000E626000080B500AF82B001228321049BB2
:10567000002B05D06B461A60064A7A44022304E0E8
:105680006B461A60044A7A44082300F04DF902B0D0
:1056900080BDC046722600006C260000F0B503AF46
:1056A00083B01E460D460446304600F0A9FB012299
:1056B000012805D10B212046334600F057FB45E079
:1056C0000192304600F08CFB012804D102A804218D
:1056D000FFF7FCFC04E002A804223146FEF7DEFBE3
:1056E000206D08222946FEF7D9FB206D083002A95B
:1056F0000422FEF7D3FB206D02210173206D0021EF
:105700004173206D01228273206DC173206D01747D
:10571000304600F065FB8625012807D12846793000
:10572000C1B204222046FEF7AFFB04E002A9042226
:105730002046FEF7B3FB0120E076226D6846019912
:10574000016011232046294600F0EEF803B0F0BDB9
:10575000F0B503AF87B00690087900044B791C02BE
:1057600004438B792343294D5019083502462A40BA
:105770008C7802944C7803940C7801260496832646
:105780000596934203D0801C2840834217D1002CF9
:1057900005D06846049901601E4A7A4414E00398D3
:1057A000032818D002281FD00128069826D19AB2C3
:1057B00069460A6000210A46FFF7D2FE09E0684602
:1057C00004990160124A7A4402230698059900F070
:1057D000ABF807B0F0BD98B26946086000210698A2
:1057E0000A46FFF73FFFF4E798B26A461060CB1D08
:1057F000002206980299FFF7CDFEEAE76946049A6F
:105800000A60054A7A440223E0E7C046F7FF000039
:105810002625000060250000F8240000D0B502AF66
:1058200082B014468A784B781B0213430A78812A87
:1058300009D0832A12D0862A26D1C91C00222346E9
:10584000FFF72CFF20E030220024845401226C4614
:105850002260CA1C812100F067F815E03022002484
:1058600084545C22825C002A06D001220274C91C86
:105870001A46FFF76DFF07E0027C002AF5D00621EB
:105880000022034600F072FA02B0D0BD80B500AF2E
:10589000282101224254C17A012914D13021425CCD
:1058A00001463031002A0ED0426AC36A9A18C26299
:1058B000FF23F6339A4206D300220A70031D052106
:1058C000012200F053FA80BD002181720174C27E72
:1058D000002A00D0C17670470849794441610849DF
:1058E00079447D229200016242620021817201743A
:1058F000C27E002A00D0C176018370473FFFFFFFC0
:10590000A9FFFFFFD0B502AF037B40200024012B8D
:1059100000D02046824206D8084611461A46FFF7B4
:10592000F1FDFFF713FED0BDF0B503AF81B0069CCB
:10593000012C01D1032585723825012646553925CC
:1059400000264655C2634022865242228352442298
:1059500081544521445400F003F801B0F0BD00002B
:10596000F0B503AF8BB005463920285C29465E317F
:1059700002912946443101912C4640342946423156
:105980000A9129463931049103950994E97A042250
:105990000023012900D01A46040603260123002C07
:1059A00000D01E4616434022364C0129099B01D0E7
:1059B000029A1288951B1A880A9B1B889A1AAA4277
:1059C00000DC1546AA190692079525400595002585
:1059D000012908940DD1039CE06C00214022FEF7C0
:1059E00053FAE06C042521462A46FEF757FA04983C
:1059F0000078010603D0C0B2FF30039C0EE0039C88
:105A0000E06C01990978AAB281540120284385B23B
:105A1000E26C0A994B785355451C0878E16CAAB2A0
:105A20008854E16B00292546099C06D0E86C801952
:105A300022888918059AFEF731FA089806990140DC
:105A40002A7BE86CFFF75EFD2088079941182180CA
:105A5000049A1078401C107089B20A9A12888A42FF
:105A600094D1FFF773FD3821002068544521695C0B
:105A7000002905D0A8722874E97E002900D0E876B4
:105A80000BB0F0BDFFFF0000F0B503AF89B01C46BE
:105A900007920E460546002004900890012C04D180
:105AA00008A804223146FEF7F9F92C73FFF71AFD16
:105AB0005C20285C00280BD0A87AFE210140022936
:105AC00006D10621002208AB284600F04FF945E038
:105AD0000595204604240690012800D0049C01224C
